:100000000C94EA010C9412020C9412020C94120249
:100010000C9412020C9412020C9412020C94120210
:100020000C9412020C9412020C9412020C945303BE
:100030000C9412020C9412020C9412020C941202F0
:100040000C9489020C9412020C9412020C94120269
:100050000C9412020C9412020C9412020C941202D0
:100060000C9412020C9412020101FF030101F70328
:100070004500680100006C00680005008930080236
:1000800038024978681400001753440016137800AA
:10009000161314001510200015201000540A03E157
:1000A00081867F3E186D830F0F0E018386603318A3
:1000B0006DC3198F1803C38E6033186DE330CF18EA
:1000C00003C39E603630CDE360CF3006C79E7E3ED0
:1000D00030CDB360CF300CC6F6603330D9B660CFC8
:1000E00033CFCCF66061B0DB1E60CF30D86CE6C099
:1000F00061B0DB1E618F19986CC6C063B19B0E3373
:100100000F0FB078C6FF7E1F1B061E0F4D4F4E20EF
:10011000504F4E470005003801680100004F6E2027
:100120007265636F6D6D656E636521004E6520704D
:10013000657264207061732100436F6E74696E751F
:1001400065210000000000240027002A00000000B4
:1001500000250028002B000A0A153A49676E6F72C5
:1001600065006D560A0A504C45415345205455527E
:100170004E204F464620004C4F5720424154544594
:10018000525921200003053F213F1208120A100A8C
:100190000E1C0E0C1E0C141A14161F161E131E1EF7
:1001A0001B1E1E1F1E3F213F3A2F3A173D173F21AE
:1001B0003F181F02040A041F0E04040E1F0A1F0A20
:1001C0000E0E1F04110E2E252E2F2A2E262929024F
:1001D0001F02081F08150E04040E150E15151B1519
:1001E0001B040604040C04000000001700030003B5
:1001F0001F0A1F16371A1904130A153A00030000C4
:100200000E11110E000A040A040E0400300004044A
:10021000040010001804031F111F121F101D1517D2
:1002200011151F07041F17151D1F151D01011F1F85
:10023000151F17151F000A00003200040A110A0AD0
:100240000A110A040115020E11171E051E1F150AB8
:100250000E110A1F110E1F15111F05010E111D1F72
:10026000041F111F1108100F1F041B1F10101F0661
:100270001F1E040F0E110E1F09060E112E1F051A48
:10028000121509011F011F101F0F180F1F0C1F1B34
:10029000041B031C03191513001F11030418111F5D
:1002A000000201022020200001020C121E1F120C6D
:1002B0000C12120C121F0C1A14041E05242A1E1FE5
:1002C000021C141D1020201D1F0814111F101E04D5
:1002D0001E1E021C0C120C3E0A040C123E1E0402CE
:1002E00014160A020F120E101E0E100E1E081E12F9
:1002F0000C1226281E322A26041E21001F00211E51
:10030000040102013F213FF6E8DBCFC3B8AEA49B56
:10031000928A827B746E68625C57524E4945413EB8
:100320003A3734312E2C2927252321172B1520105D
:10033000204C4F4144455200172B16201314000A3D
:100340004E6F2053442063617264206F720A6E6F97
:10035000204C4F414445522E4845580A0A153A450B
:10036000786974001D20466C617368696E670A20A5
:10037000206C6F616465722E2E2E0A0A444F4E2740
:1003800054205455524E204F464621000000000094
:1003900023002600290004040404040404040202C7
:1003A00002020202030303030303010204081020F4
:1003B00040800102040810200102040810200000FF
:1003C0000008000201000003040700000000000014
:1003D0000000131411241FBECFEFD8E0DEBFCDBF45
:1003E00011E0A0E0B1E0E8E5FEE202C005900D9268
:1003F000A432B107D9F723E0A4E2B1E001C01D9215
:10040000A93CB207E1F711E0CAEED1E004C02197A0
:10041000FE010E941F17C93ED107C9F70E94A80D0F
:100420000C942A170C940000CF92DF92EF92FF9267
:100430000F931F93CF93DF936C017A018B01C0E080
:10044000D0E0CE15DF0581F0D8016D918D01D60188
:10045000ED91FC910190F081E02DC6010995892B69
:1004600011F02196EECF7E01C701DF91CF911F9150
:100470000F91FF90EF90DF90CF90089570E0FC0116
:10048000E60FF71F178A158A9B01220F331FDC0125
:10049000A20FB31F94961C921E929397108EFB018D
:1004A000E75CFE4F1082FB01E65CFE4F1082FB0111
:1004B000E35CFE4F10821092B4000895089580E02E
:1004C00090E008950E9425173FB7F8948091350178
:1004D00090913601A0913701B091380126B5A89BC3
:1004E00005C02F3F19F00196A11DB11D3FBFBA2FC6
:1004F000A92F982F8827820F911DA11DB11DBC0126
:10050000CD0142E0660F771F881F991F4A95D1F7EA
:1005100008951F920F920FB60F9211242F933F93BD
:100520008F939F93AF93BF9380913E0190913F0132
:10053000A0914001B09141013091340123E0230F9B
:100540002D3720F40196A11DB11D05C026E8230F0B
:100550000296A11DB11D2093340180933E0190931A
:100560003F01A0934001B0934101809135019091EA
:100570003601A0913701B09138010196A11DB11D3E
:100580008093350190933601A0933701B0933801E1
:10059000BF91AF919F918F913F912F910F900FBE7F
:1005A0000F901F901895611102C00C943E0208959F
:1005B000DC01ED91FC910190F081E02D0994611531
:1005C000710579F0FB0101900020E9F73197AF0147
:1005D000461B570BDC01ED91FC910280F381E02D6D
:1005E000099480E090E008958F929F92AF92BF921D
:1005F000EF92FF920F931F93CF93DF93CDB7DEB7A8
:10060000A1970FB6F894DEBF0FBECDBF7C01FA01F3
:10061000CB0119A2223008F42AE08E010F5D1F4F92
:10062000822E912CA12CB12CBF01A50194010E9416
:10063000E314F901CA01015011096A3014F4605D34
:1006400001C0695CD8016C93232B242B252B61F707
:10065000B801C7010E94DF02A1960FB6F894DEBF71
:100660000FBECDBFDF91CF911F910F91FF90EF9003
:10067000BF90AF909F908F900895CF93DF93EC0140
:1006800060E00E943E0280E790E09E878D871B8A93
:100690001A8A81E0898389E08E8B198E1B8E1D8ECC
:1006A000DF91CF9108951F920F920FB60F921124F0
:1006B0002F936F937F938F939F9360913A0166235B
:1006C00059F1809124018F5F8093240190913B0127
:1006D000891710F120913D0181E0282720933D01E9
:1006E0001092240180913C01882369F080910001DF
:1006F00093E4899F802D1124895B809300010E94DF
:10070000EB1690933901222329F0809139018093CF
:10071000B40002C080E0FBCF9F918F917F916F91D9
:100720002F910F900FBE0F901F901895FC0164350C
:1007300008F053C0403308F050C090A1742F759555
:1007400075957595262F062E000C330B542F577078
:100750009230A1F4F90184E57802E00DF11D112435
:10076000EE5BFE4F808190E0052E02C09595879547
:100770000A94E2F78095982F91700AC0933041F463
:1007800084858170462740954170841303C014C04E
:10079000911112C084E57802200D311D1124F90158
:1007A000EE5BFE4F81E090E001C0880F5A95EAF7BA
:1007B00080959081892310C084E57802200D311D39
:1007C0001124F901EE5BFE4F81E090E001C0880F3B
:1007D0005A95EAF79081892B80830895CF92DF9212
:1007E000EF92FF920F931F93CF93DF937C01D62E4E
:1007F000C22EC42F002E000C110B040F111D47FD3B
:100800001A958C2F0C2E000C990B801791076CF405
:10081000D0E0DC1544F46D2D6D0F4C2FC7010E9404
:100820009603DF5FF6CFCF5FECCFDF91CF911F91C3
:100830000F91FF90EF90DF90CF9008956F927F928D
:100840008F929F92AF92BF92CF92DF92EF92FF92E0
:100850000F931F93CF93DF93EC016A3011F4288537
:10086000A3C06D3009F4A7C0A98483E58A150CF4F0
:1008700085C0BA848FE28B150CF480C0D8848C813B
:1008800090E00197D89E9001D99E300D1124C901A6
:100890008A0D911DA7FC9A95181619060CF06EC0CA
:1008A0002D818B2D0B2C000C990BD29E800D911D50
:1008B0001124181619060CF061C088A09A2CCA2CB5
:1008C000E62EF12CEC2DEA190E2E000CFF0B8C817C
:1008D00090E0E817F9070CF050C00197E817F90706
:1008E00079F0E89E9001E99E300DF89E300D1124BC
:1008F000E20FF31F8E8D9F8DE80FF91F149101C039
:1009000010E06B2C7B2C272D2B19022E000C330BA7
:100910008D8190E0281739076CF510FF11C081E038
:10092000D81206C0472D6C2DCE010E9496031EC022
:100930000D2D2D2D462D692DCE010E94EE0316C0E2
:1009400089A198A1891791F088A381E0D81206C0E7
:10095000472D6C2DCE010E94960307C00D2D2D2D25
:10096000462D692DCE010E94EE0388A21695739440
:100970006D0CC9CFC3949D0CA5CF88A228853C815E
:100980008985239F800D112489879F81992399F060
:10099000082E000C990B44E550E0239F40195109A3
:1009A0001124481759073CF49D818A85299F800DA1
:1009B00011248A87198681E090E0DF91CF911F9101
:1009C0000F91FF90EF90DF90CF90BF90AF909F90EE
:1009D0008F907F906F900895833081F028F481305C
:1009E00099F08230A1F008958730A9F08830B9F0ED
:1009F0008430D1F4809180008F7D03C0809180008D
:100A00008F7780938000089584B58F7702C084B576
:100A10008F7D84BD08958091B0008F7703C0809151
:100A2000B0008F7D8093B00008951F93CF93DF9324
:100A3000282F30E0F901E254FC4F8491F901E6558A
:100A4000FC4FD491F901EA56FC4FC491CC23C1F07C
:100A5000162F81110E94EC04EC2FF0E0EE0FFF1F27
:100A6000E35BFE4FA591B4919FB7F894111104C0B8
:100A70008C91D095D82302C0EC91DE2BDC939FBFE4
:100A8000DF91CF911F910895CF93DF9390E0FC0108
:100A9000E655FC4F2491FC01EA56FC4F84918823D3
:100AA00061F190E0880F991FFC01ED5BFE4FC5914D
:100AB000D491FC01E35BFE4FA591B491611109C093
:100AC0009FB7F8948881209582238883EC912E2308
:100AD0000BC0623061F49FB7F8948881322F309553
:100AE00083238883EC912E2B2C939FBF06C08FB756
:100AF000F894E8812E2B28838FBFDF91CF91089542
:100B00001F93CF93DF93182FEB0161E00E94440500
:100B1000209711F460E004C0CF3FD10539F461E0C3
:100B2000812FDF91CF911F910C941505E12FF0E0FB
:100B3000E254FC4FE491E330F9F048F4E130B9F0CD
:100B4000E230A1F584B5806284BDC8BD34C0E73011
:100B5000E9F0E83019F1E43049F5809180008062D5
:100B600080938000D0938B00C0938A0024C084B50A
:100B7000806884BDC7BD1FC080918000806880935D
:100B80008000D0938900C093880015C08091B00088
:100B900080688093B000C093B3000DC08091B00016
:100BA00080628093B000C093B40005C0C038D10506
:100BB0000CF0B5CFAFCFDF91CF911F9108958E305C
:100BC00008F08E508770806480937C0080917A005A
:100BD000806480937A0080917A0086FDFCCF8091BA
:100BE00078002091790090E0922B08954F925F92C7
:100BF0006F927F928F929F92AF92BF92CF92DF922D
:100C0000EF92FF920F931F93CF93DF9300D000D00A
:100C10001F92CDB7DEB74091C2035091C3036091DC
:100C2000C4037091C5032FB7F89480913E01909151
:100C30003F01A0914001B09141012FBF481B590BCA
:100C40006A0B7B0B8091C10390E0A0E0B0E00091C3
:100C5000BD031091BE032091BF033091C0038417E0
:100C60009507A607B70730F40115110521053105D1
:100C700009F039C3012B022B032B09F032C38091F9
:100C8000590381508E3F18F5809158038130F9F453
:100C900080916C038F5F60916D0387FD09C0082E02
:100CA000000C990B70E06F5F7F4F0E94F716682F62
:100CB00060936C0388E393E09093C7038093C6032B
:100CC00088E48093C80387E693E00E943D03809107
:100CD000590381508E3F70F480915703813009F0A1
:100CE000D4C38BE293E09093C7038093C60388E458
:100CF0008093C80380E00E943F0C809168038823A2
:100D000009F4ADC080917C038111A9C08091740366
:100D100090917503E0917903F0917A03EE0FFF1F34
:100D2000E80FF91F259134912115310541F52091E6
:100D30007803222331F010927A0310927903FC0198
:100D400015C01092680380916703882391F080E0BA
:100D50000E943F0CE0917903F0917A03EE0FFF1FA0
:100D60008091740390917503E80FF91F25913491D8
:100D700006C060E087E693E00E94D30270C0A9013C
:100D8000569547955695479520FF49C0C901A6E05D
:100D900096958795AA95E1F78F71932F96959695DD
:100DA000969590514F704230E9F040F44423A1F001
:100DB000413059F560E00E94A40C27C04330E1F0B7
:100DC000443019F520916B03289F802D11248093C6
:100DD00084039093850319C08B3008F08AE08093D8
:100DE0007D0313C020916B03289F802D11248093D5
:100DF00080039093810309C020916B03289F802D6D
:100E000011248093820390938303E0917903F091FE
:100E10007A033196F0937A03E09379039FCF4F736F
:100E200040937B0380916B03839F802D11248093DB
:100E30007C0310928C0310928B0310928A0381E042
:100E400080937E0380933D0110927F03809179030C
:100E500090917A03019690937A038093790380911D
:100E60007E03882309F4F3C080917C03811106C0BE
:100E700060E087E693E00E94D302E9C0815080934E
:100E80007C0380918C03811148C020918A033091AA
:100E90008B032F5F3F4FC901880F991FE091860395
:100EA000F0918703E80FF91F65917491862F877081
:100EB00080938D03AB01E3E056954795EA95E1F702
:100EC000CA0196958795972F9695969590938E0340
:100ED0008F7390916B03899F802D112480938C03D5
:100EE000417040933C0130938B0320938A0380919F
:100EF000880390E02817390780F020918903222386
:100F000039F0821B910990938B0380938A0305C06B
:100F100060E087E693E00E94D30280918C038150C9
:100F200080938C0380917F0321E0280F20937F031F
:100F300040917B0330918E03340F80917303380FFF
:100F40003093690360918203662371F070E0822F11
:100F5000022E000C990B0E94F71680918303869F46
:100F6000300D1124309369038091690390E08496D9
:100F700064E270E00E94F7168093690330917D036C
:100F800030936A0360918003662381F0062E000C83
:100F9000770B822F022E000C990B0E94F71680917E
:100FA0008103869F300D112430936A03609184037E
:100FB0006623A1F0822F220F990B70E00E94F71692
:100FC000CB0162E070E00E94F716209185039091BA
:100FD0006A03289F900D112490936A034F3351F0B8
:100FE00080916A038A300CF089E087FD80E080936D
:100FF0006A0302C010926A03F894E0916903F0E07A
:10100000E95FFC4FE491E0933B0130916A0320914A
:101010008F0332039001112440918D034203C001DC
:10102000439F900D112400906C0302C0880F991FFC
:101030000A94E2F797FF02C081589F4F880F892FCB
:10104000881F990B80933A0180933901789480919D
:10105000C803882309F491C08C3020F43CE0381B8D
:10106000398301C01982FF24F394F09298031092FF
:10107000B0031092B103409195034D831981141B65
:10108000042F0D5F4DE2410F2EE463E080E993E011
:101090000E94EE035D8154505D83105D252F41E079
:1010A000612F80E50E94E30B2D8142E0612F83E0F8
:1010B0000E94E30BF092B003F092B103009195030C
:1010C00043E0E42EE00E1981101B8DE2810F8D8329
:1010D00053E0F52E4D816F2D80E993E00E94960339
:1010E000F39491E5F912F6CFAD81AE0DAD83EA2E02
:1010F000EA9433E0F32E4E2D6F2D80E993E00E94A9
:101100009603F394B1E5FB12F6CF0350105D402F28
:10111000612F80E00E94CB0B402F612F83E50E945E
:10112000CB0B41E0612F83E00E944C0B42E0612F2A
:1011300080E50E944C0B2D8124502D8344E0622FCA
:1011400080E50E944C0B48E06D8183E00E944C0BCF
:1011500084E080939903809195033981381B315D38
:1011600030939A038091C6039091C7030E94F50AB9
:101170008091C80381508093C80380915E03909151
:101180005F03892B09F485C041E04093B0031092BE
:10119000B1039091940385E5891B80939903109284
:1011A0009A0360915B03613009F454C030F0809180
:1011B0005A03653008F066C061C060E087E693E0DE
:1011C0000E94D3021092680351E050939803E5E81F
:1011D000F1E0E491EF5FE0939403E6E8F1E0E4915D
:1011E000EF5FE093950387E891E09093AF038093DE
:1011F000AE0310925F0310925E031092960388EA8A
:1012000089830E94F6058823E1F387E791E00E9435
:10121000F50A40915C0350915D0360E070E02AE0C4
:1012200080E993E00E94F40282E691E00E94F50AD0
:10123000698162956F7070E080E993E00E94160BFF
:1012400087E591E00E94F50A80915703813009F00B
:1012500000C11FC08091B3039091B403A091B50366
:10126000B091B6038F709927AA27BB270897A105CD
:10127000B10510F467E009C068E707C0882349F0AA
:101280006B5F03C0882329F06FE280E993E00E943E
:10129000D8020E94BA0A8091960381110EC088EF8D
:1012A00091E0E2E4F1E0DF019C011D922150304029
:1012B000E1F71092990310929A030E9464026093DE
:1012C000BD037093BE038093BF039093C00320912E
:1012D000B9033091BA03621B730B7093B803609328
:1012E000B70380E0D8C02FB7F89480913E01909169
:1012F0003F01A0914001B09141012FBF2091C10356
:10130000820F911DA11DB11D8093C2039093C30351
:10131000A093C403B093C5038091B3039091B40329
:10132000A091B503B091B6030196A11DB11D8093A4
:10133000B3039093B403A093B503B093B603109294
:10134000BD031092BE031092BF031092C0030E940F
:1013500064026093B9037093BA038093BB039093C4
:10136000BC0380914303909144032FE0289FA00188
:10137000299F500D11245A83498385E10E94DF057E
:10138000A981BA818A0F9B1F24E0969587952A959B
:10139000E1F7909344038093430320914203222377
:1013A00009F44BC060914603262F30E040E050E046
:1013B00029833A834B835C83C0904703D12CE12C73
:1013C000F12C40914A0350914B034A01A12CB12CBE
:1013D00020914803309149032901612C712C821717
:1013E000930728F09C014817590708F49A01C9018E
:1013F000A0E0B0E09C01AD01241935094609570968
:1014000069817A818B819C816C197D098E099F0984
:101410000E94DB16A50194012419350946095709D4
:101420000E94B114C20ED31EE41EF51EC0924503E5
:101430006C2D70E085E00E9480050E94E10C809197
:101440005E0390915F03892B11F00E94710D81E082
:1014500022C0B981B150B983B111D3CE60E070E040
:1014600085E00E94800583B7817F846083BF83B756
:10147000816083BF83B7816083BF889583B78E7F88
:1014800083BF83B78E7F83BFBCCE893209F032CC55
:101490000E943C0D2FCC0F900F900F900F900F904B
:1014A000DF91CF911F910F91FF90EF90DF90CF9040
:1014B000BF90AF909F908F907F906F905F904F9074
:1014C00008958F929F92AF92BF92CF92DF92EF9248
:1014D000FF926B017C010E9464024B015C01C1140C
:1014E000D104E104F104F1F00E946402DC01CB01BB
:1014F00088199909AA09BB09883E9340A105B1053D
:1015000070F321E0C21AD108E108F10888EE880ED4
:1015100083E0981EA11CB11CC114D104E104F104A4
:1015200019F7DDCFFF90EF90DF90CF90BF90AF9095
:101530009F908F900895CF93C82FF89460E080918A
:101540009F030E9415058091A00318161CF460E00B
:101550000E941505CEBD00000DB407FEFDCF8EB56F
:101560008091A00318161CF461E00E941505789480
:10157000CF9108950F931F93CF9380919C038F5F1A
:1015800080939C0302E411E0C0E08C2F80640E94F1
:101590009B0A80E80E949B0A61E080919F030E9461
:1015A00015058091A00318161CF460E00E94150533
:1015B000F80184E591919EBD00000DB407FEFDCFBA
:1015C0009EB58150B9F78091A00318161CF461E014
:1015D0000E941505CF5F0C5A1F4FC630B1F680E44C
:1015E000CF911F910F910C949B0A0F931F93CF9350
:1015F000DF938C01C0E0D0E0F801EC0FFD1F649197
:10160000662371F0E0919003F09191030190F081D5
:10161000E02D80E993E00995892B11F02196ECCF1C
:10162000CE01DF91CF911F910F910895CF92DF925C
:10163000EF92FF920F931F93CF93DF936B01770F7E
:10164000EE08FF08F7FE1BC0EC016DE20E94D80215
:101650008C0144275527BA014C195D096E097F0991
:101660002AE0CE010E94F402800F911FDF91CF91FA
:101670001F910F91FF90EF90DF90CF9008952AE097
:10168000B701A601DF91CF911F910F91FF90EF90CD
:10169000DF90CF900C94F402AF92BF92CF92DF9282
:1016A000EF92FF920F931F93CF93DF93182F062F84
:1016B000C1E0D3E08AEFD82E9EEFE92E842F84700C
:1016C000C82E842F8270B82E842F8870A82E417067
:1016D000F42E8C2F880F8F5FE80ECC2081F0402FE6
:1016E0004D0F612F6C0F80E993E00E949603402F0D
:1016F0004C0F6D2F610F80E993E00E949603BB2091
:1017000081F0402F4D1B612F6C0F80E993E00E9408
:101710009603402F4C1B6D2F610F80E993E00E94D0
:101720009603AA2081F0402F4C0F612F6D1B80E99A
:1017300093E00E949603402F4D0F612F6C1B80E9B0
:1017400093E00E949603F1100AC0CD17CCF4E7FC99
:1017500004C0D150D394D394ED0CCF5FBACF402FB7
:101760004C1B612F6D1B80E993E00E949603402F74
:101770004D1B612F6C1B80E993E00E949603E5CF1F
:10178000DF91CF911F910F91FF90EF90DF90CF905D
:10179000BF90AF9008950F931F93CF93DF93D82FEF
:1017A000162F042FC0E0C0174CF4412F4C0F6D2FA3
:1017B00080E993E00E949603CF5FF5CFDF91CF9150
:1017C0001F910F9108959F92AF92BF92CF92DF9297
:1017D000EF92FF920F931F93CF93DF93F82EE62E95
:1017E000B22E13E0120FD0E0C3E08AEFC82E0EEF46
:1017F000842F8170982EAA24A394A20E4270D42E16
:10180000DF5F812F8B19080F992081F04C2F440F37
:101810004A0D6E2D6C1B8D2F8F0D0E94CB0B412F0F
:101820006E2D6D1B8C2F8F0D0E94CB0BD1100AC01B
:10183000DC17CCF407FD04C0C150C394C3940C0D55
:101840001E5FDECF4C2F440F4A0D6E2D6C1B8F2D6B
:101850008D1B0E94CB0B412F6E2D6D1B8F2D8C1B72
:101860000E94CB0BE5CFDF91CF911F910F91FF909D
:10187000EF90DF90CF90BF90AF909F900895CF9260
:10188000DF92EF92FF920F931F93CF93DF93082F76
:1018900010E0E801CE5BDC4F9DA1992309F44BC019
:1018A0009EA1911148C09EA59801220F331FA90146
:1018B0004E5B5C4F7A01FA0134A525A5E32FF22F88
:1018C000E90FF11DE90FF11D259134912F3FFFEF35
:1018D0003F0711F41DA22FC039ABF801EE0FFF1F17
:1018E000E45BFC4F3327220F331F05A0F6A1E02D48
:1018F000E20FF31FC590D49081111AC060E087E613
:1019000093E00E94D302F701D3AAC2AA000F111FCD
:10191000F801EC5AFC4F16A215A281E08EA389E0D3
:101920008BAF1EAEFE01E05CFF4F1082329610823C
:101930008EA58F5F8EA7DF91CF911F910F91FF90A2
:10194000EF90DF90CF90089570E0DB01AA0FBB1FEE
:10195000AE5BBC4FD4962C91D497D5969C91D597DD
:10196000E22FF92FE80FF11DE80FF11D25913491B9
:101970005F9696963C932E939597F9018591949155
:1019800090916B03989F802D11246E5B7C4FFB011F
:10199000EA5BFF4F8083F901A591B4914B2F50E092
:1019A000E82FF0E04E175F0720F4F90125913491FC
:1019B000832FFB01E95BFF4F989F802D11248083CB
:1019C0000895DF92EF92FF920F931F93CF93DF93CF
:1019D000C2E4D3E009E413E0EE24EA9462E08A85ED
:1019E0000E9444052A8530E0F901E254FC4F8491BD
:1019F000F901E655FC4FF490F901EA56FC4FD490FA
:101A0000DD2071F081110E94EC04ED2DF0E0EE0F6D
:101A1000FF1FE457FC4FA591B491EC91FE2299F47D
:101A200089898F5F898B60E08A850E9444052196B1
:101A30000C171D0799F6DF91CF911F910F91FF9021
:101A4000EF90DF9008958989882389F38F3F11F4FF
:101A5000198AE9CFE98AE7CFCF93DF930E94F50A8D
:101A6000EC0169E171E080E993E00E94DF028C0FF4
:101A70009D1FDF91CF91089588EF91E0E2E4F1E0BE
:101A8000DF019C011D9221503040E1F71092990333
:101A900010929A0384E693E00E94F50A0E94BA0A23
:101AA0008CB583608CBD8DB58E7F8DBD8CE191E052
:101AB000EEEFFFE30995109296038FE393E00E9407
:101AC0002C0D0E94BA0A0E94E10C809157038130CC
:101AD00039F062E370E080E090E00E94610AF3CFA9
:101AE0000895809166038F7169F584E10E94DF0596
:101AF000BC01990F880B990B0E94BE1526EE3FE39F
:101B00004EEC50E40E946E160E948D159B0170935E
:101B10005D0360935C03672B91F084E080935B032B
:101B2000EEE5F3E080E0419151912417350718F478
:101B300080935B0308958F5F8430A9F703C08FEF14
:101B400080935B03809166038F5F809366030895A3
:101B5000789484B5826084BD84B5816084BD85B588
:101B6000826085BD85B5816085BD80916E00816094
:101B700080936E001092810080918100826080933A
:101B8000810080918100816080938100809180003C
:101B90008160809380008091B10084608093B10067
:101BA0008091B00081608093B00080917A00846061
:101BB00080937A0080917A00826080937A0080918D
:101BC0007A00816080937A0080917A0080688093A7
:101BD0007A001092C10082E38093C10381E090E01B
:101BE000A0E0B0E08093BD039093BE03A093BF0339
:101BF000B093C0038FEF8093B203E0E8F7E725913D
:101C000034912130304C09F049C0E6E9F7E7E4911E
:101C1000E0939B03E7E9F7E7E491E0934603E8E903
:101C2000F7E7E491E0934703E9E9F7E785919491B9
:101C30009093490380934803EBE9F7E785919491EA
:101C400090934B0380934A0387E080936D03EEE902
:101C5000F7E7E491E0936C03EFE9F7E7E491E093B1
:101C6000B203E0EAF7E78591949190935F03809344
:101C70005E03E2EAF7E78591949190936103809384
:101C80006003E4EAF7E7859194919093630380936E
:101C90006203E6EAF7E7859194912CC09CE3909368
:101CA0009B03109246038093470380E293E0909356
:101CB00049038093480384ED93E090934B03809312
:101CC0004A0387E080936D0380936C038CEA9DE068
:101CD00090935F0380935E038EED9DE0909361038C
:101CE0008093600384E79EE0909363038093620394
:101CF0008CE39FE09093650380936403C1E0C093FD
:101D000042036FEF70E085E00E94800588E08093D9
:101D10004C0389E080934D0387E080934E0386E077
:101D200080934F03D4E0D093500382E0809351031B
:101D300081E1809352030E94E10C8CE39FE0909339
:101D40005D0380935C03D0935B03C09366038BE0D9
:101D500080939E038DE080939D0380E180939F0399
:101D60008EE08093A1038FE08093A003C09398033B
:101D7000C093B0031092B103C0939703E5E8F1E07C
:101D8000E491EF5FE0939403E6E8F1E0E491EF5F24
:101D9000E093950387E891E09093AF038093AE03BF
:101DA000CFB7F89480912501811127C0E0EAF3E0D4
:101DB0008491E4EBF3E09491E82FF0E0EE0FFF1F45
:101DC000ED5BFE4FA591B491EC91E92321F461E024
:101DD0008AE00E94150561E08AE00E9444058CB506
:101DE00080618CBD8CB580648CBD61E08DE00E940B
:101DF000440561E08BE00E944405809125018F5FDE
:101E000080932501CFBF8CB58F7D8CBD8CB58C7F29
:101E100081608CBD8DB581608DBD8CB58C608CBDB5
:101E200061E080919E030E94440561E080919D03E2
:101E30000E94440561E080919F030E9444058091C7
:101E4000A10318161CF461E00E9444058091A003D0
:101E500018161CF461E00E9444058091A103181635
:101E600074F460E00E9415056AE070E080E090E0A4
:101E70000E94610A61E08091A1030E941505809192
:101E80009D03082E000C990BFC01EA56FC4FE491CF
:101E9000F0E0EE0FFF1FE35BFE4F2591349130938E
:101EA000A5032093A403FC01E655FC4FE491E093C5
:101EB000AB0380919E03082E000C990BFC01EA569F
:101EC000FC4FE491F0E0EE0FFF1FE35BFE4F259126
:101ED00034913093A3032093A203FC01E655FC4FF9
:101EE000E491E093AA038091A003082E000C990BC3
:101EF000FC01EA56FC4FE491F0E0EE0FFF1FE35BBC
:101F0000FE4F259134913093A7032093A603FC0143
:101F1000E655FC4FE491E093AC0380919F03082EBB
:101F2000000C990BFC01EA56FC4FE491F0E0EE0F37
:101F3000FF1FE35BFE4F259134913093A90320935B
:101F4000A803FC01E655FC4FE491E093AD0381E268
:101F50000E949B0A84E10E949B0A80919B0387FF59
:101F600003C08FE780939B0380919B0380680E944E
:101F70009B0A80E20E949B0A8CE00E949B0A0E94BE
:101F8000BA0A81E080936B0384E080938F0386E735
:101F900090E0909377038093760360E080E00E9466
:101FA000A40C61E070E083E00E9480058091B100A4
:101FB000887F81608093B100F89410928000109225
:101FC0008100109285001092840088E191E0909346
:101FD00089008093880080918100886080938100CF
:101FE0008091810081608093810080916F00826088
:101FF00080936F00789480915E0390915F03892BAA
:1020000011F00E94710D80915803813019F41092E3
:102010006C031FC080915B038823C9F360E087E6EF
:1020200093E00E943E028AE790E0909375038093CC
:10203000740310927A031092790381E0809368030D
:1020400089E080937D0310928003109282031092A6
:1020500084038091B203882309F47EC181E08093D8
:102060009803109297031092960310925A0380934C
:10207000B0038093B1033CE9832E30E0932E4DE909
:10208000A42E40E0B42E11E00CE00E94F605882357
:10209000E1F3ECE0F1E08491F4018491F5014491E5
:1020A000F090B003082E000C990B6C01F7E0CF0EF6
:1020B000D11CD7FE04C06C012EE0C20ED11C23E05F
:1020C000D594C7942A95E1F7181619060CF09AC012
:1020D00014160CF097C041330CF040E385359105A0
:1020E00014F084E590E0E0909C0370E022E431E09D
:1020F00091E0AEE9B0E0042E000C550BDD24E72F93
:10210000F0E0E417F5070CF07DC0FD016491F1E00B
:10211000FF1218C0FD01E9016894772477F8662E54
:10212000672019F06880692A6882769429F43196CC
:1021300064916894772477F821966C2E621A681659
:1021400070F357C0F1101AC0692E6094FD01E901C7
:102150006894772477F8562E572019F05880562027
:102160005882769429F4319664916894772477F8AC
:1021700021965C2E521A581670F33BC0E3E0FE1213
:1021800021C0492E4094FD01E9016894662467F856
:10219000512C762E762049F078803E2C352430FE66
:1021A00002C0792A01C074207882669429F431969D
:1021B00064916894662467F853942196581648F3FE
:1021C000E12617C0FD01E9016894772477F8672CB0
:1021D000662219F0688069266882769429F431961F
:1021E00064916894772477F821966C2E621A6816A9
:1021F00070F3990F19F42C5A3F4F91E07F5FAC0DAB
:10220000BD1D7DCF1092990300939A038CE091E05D
:102210000E94F50A80919403982F990F890F819558
:102220008D5A8093990380919503982F990F890F68
:102230008195835D80939A038091B30384FF03C0EB
:1022400088E990E002C084E990E00E942C0D809122
:102250009403982F990F890F81958D5A8093990334
:1022600080919A038F5F80939A0380916C038823F7
:1022700019F080E990E002C08CE890E00E942C0DFB
:1022800080919403982F990F890F81958D5A80938F
:10229000990380919A038F5F80939A0388E890E076
:1022A0000E942C0D809158038130B1F480916C0311
:1022B0008F5F60916D0387FD09C0082E000C990B9C
:1022C00070E06F5F7F4F0E94F716682F60936C037A
:1022D00087E693E00E943D03809157038130B9F077
:1022E0008091B203482F50E060E070E0C090B303EB
:1022F000D090B403E090B503F090B603C416D506B1
:10230000E606F70608F481C28F3F09F47EC28FEF1C
:102310008093B20360E087E693E00E943E02109251
:10232000680360E087E693E00E943E0285E191E069
:10233000909375038093740310927A03109279033B
:1023400081E08093680389E080937D03109280038D
:10235000109282031092840310925A0332E0E32E0B
:10236000F12C47E0242E312C0E94F6058823E1F35E
:10237000E2E4F1E048EF51E0119241505040E1F7C2
:102380001092990310929A03809132019091330137
:102390008535910534F188E290E090933301809384
:1023A00032010E94A1146EE270E00E94F7160196BD
:1023B0009093310180933001F0920801E09207017F
:1023C000F0920601E092050180912E0190912F017B
:1023D000019690932F0180932E0187E693E00E944F
:1023E0003D03809132019091330197FF26C0E8E2CE
:1023F000F0E0F0933301E09332010E94A1146EE209
:1024000070E00E94F716019690933101809330019D
:10241000F0920801E0920701F0920601E0920501B6
:1024200080912C0190912D01019690932D01809324
:102430002C0187E693E00E943D0380912E0190914C
:102440002F018130910521F4309204012092030183
:1024500020912C0130912D012130310589F43092E9
:1024600002012092010182309105D1F446E050E052
:10247000509304014093030122303105F1F406C06A
:102480008230910599F32230310551F4E6E0F0E015
:10249000F0930201E093010183309105D1F403C070
:1024A0008330910551F444E050E05093040140938F
:1024B000030123303105F1F403C02330310549F421
:1024C000E4E0F0E0F0930201E0930101049721F5CC
:1024D00002C0049779F443E050E050930401409324
:1024E000030189E391E09093C7038093C60384E3DB
:1024F0008093C8032430310579F4E3E0F0E0F093F1
:102500000201E09301014CE251E05093C703409374
:10251000C60384E38093C80380915903813009F492
:102520007CC180912E0190912F01059731F080910F
:102530002C0190912D010597B1F510922F01109269
:102540002E0110922D0110922C0160E087E693E09D
:102550000E943E0285E191E090937503809374039D
:1025600010927A031092790381E08093680389E0E6
:1025700080937D0310928003109282031092840353
:10258000E8E0F0E0F0930401E0930301F09302012E
:10259000E09301018DE191E09093C7038093C6031E
:1025A00084E38093C8038091540381508E3F68F484
:1025B00080912A0190912B01181619060CF030C158
:1025C000019790932B0180932A01809156038150AB
:1025D0008E3FA8F4209103013091040180E390E044
:1025E000821B930B20912A0130912B012817390768
:1025F00014F4C901019690932B0180932A01A090B5
:102600003201B09033018091070190910801A80E2A
:10261000B91EB0923301A0923201C0913001D09125
:1026200031018091050190910601C80FD91FD09307
:102630003101C0933001C0900101D090020160913E
:10264000280170912901C601D7FC019695958795BF
:102650009C01260F371F072E000C880B990B2C1797
:102660003D072CF500E310E00C191D090E94BE1572
:1026700023E333E343EF5FE30E9415152B013C0195
:10268000B801012E000C880B990B0E94BE15A30106
:1026900092010E94811587FD05C0C301B2010E940D
:1026A00086158B0110932901009328011CC00E94FC
:1026B000BE1523E333E343EF5FE30E9414152B01C0
:1026C0003C0120E030E0A9010E94811587FD05C092
:1026D000C301B2010E94861502C060E070E07093F1
:1026E000290160932801D7FF05C0F0920601E0920E
:1026F000050109C0CD32D10554F08EEF9FEF9093C4
:1027000006018093050187E693E00E943D03F4E013
:10271000AF16B104D1F420912A0130912B01CE01E2
:102720000496821793078CF0809103019091040125
:10273000820F931F8C179D0744F0F0920801E092DE
:10274000070187E693E00E943D0380902601909068
:102750002701C501049688159905C9F480912801BF
:10276000909129019E012C5F3F4F281739077CF07B
:102770008C0D9D1D8C179D0754F08EEF9FEF90934D
:1027800008018093070187E693E00E943D0304E07F
:1027900024E04C2F6A2D80E993E00E94EE03009123
:1027A000030124E040912A0160E080E993E00E9467
:1027B000EE030C2D24E040912801682D80E993E080
:1027C0000E94EE0383E280939903C5E0C0939A03CD
:1027D00060912E0170912F0180E993E00E94160B09
:1027E0008AE280939903C0939A0360912C017091BF
:1027F0002D0180E993E00E94160B80E090E0892B88
:1028000009F4B2CD0E940000AFCD80915903813010
:1028100009F03BCC0E943C0D38CC0E943C0D81CE8F
:1028200080E090E0CECE109293031092920381E16B
:1028300091E0909391038093900388E290E09093CD
:102840003301809332010E94A1146EE270E00E9475
:10285000F716019690933101809330012091030186
:102860003091040180E390E0821B930B97FD019669
:102870009595879590932B0180932A0180E590E0B0
:10288000909327018093260120910101309102014C
:1028900080E390E0821B930B97FD019695958795B9
:1028A000909329018093280108958F929F92AF926F
:1028B000BF92CF92DF92EF92FF92CF93DF93EC0122
:1028C000688179818A819B816115710581059105F6
:1028D00021F464E279ED8BE597E02DE133EF41E0FF
:1028E00050E00E94B11449015A019B01AC01A7EAD2
:1028F000B1E40E94D0146B017C01ACEEB4EFA501F1
:1029000094010E94DE14DC01CB018C0D9D1DAE1DD7
:10291000BF1DB7FF03C00197A109B0488883998301
:10292000AA83BB839F77DF91CF91FF90EF90DF90D9
:10293000CF90BF90AF909F908F9008950E945514B4
:10294000089589E091E00E9455140895A0E0B0E058
:102950008093090190930A01A0930B01B0930C019D
:102960000895052E97FB1EF400940E94C81457FD8D
:1029700007D00E94E31407FC03D04EF40C94C81453
:1029800050954095309521953F4F4F4F5F4F08959B
:1029900090958095709561957F4F8F4F9F4F0895CB
:1029A0000E940515A59F900DB49F900DA49F800DCA
:1029B000911D11240895B7FF0C94D0140E94D014D7
:1029C000821B930B0895A1E21A2EAA1BBB1BFD01CB
:1029D0000DC0AA1FBB1FEE1FFF1FA217B307E407FE
:1029E000F50720F0A21BB30BE40BF50B661F771F56
:1029F000881F991F1A9469F7609570958095909536
:102A00009B01AC01BD01CF010895A29FB001B39F0E
:102A1000C001A39F700D811D1124911DB29F700DE7
:102A2000811D1124911D08955058BB27AA270E948B
:102A30002C150C9434160E94261638F00E942D1680
:102A400020F039F49F3F19F426F40C9423160EF469
:102A5000E095E7FB0C941D16E92F0E94451658F3EC
:102A6000BA17620773078407950720F079F4A6F573
:102A70000C9467160EF4E0950B2EBA2FA02D0B01C7
:102A8000B90190010C01CA01A0011124FF27591BB3
:102A900099F0593F50F4503E68F11A16F040A22FB9
:102AA000232F342F4427585FF3CF4695379527952A
:102AB000A795F0405395C9F77EF41F16BA0B620B29
:102AC000730B840BBAF09150A1F0FF0FBB1F661F70
:102AD000771F881FC2F70EC0BA0F621F731F841FB3
:102AE00048F4879577956795B795F7959E3F08F0D9
:102AF000B0CF9395880F08F09927EE0F979587959B
:102B000008950E94F91508F481E008950E948D153A
:102B10006894B1110C94681608950E944D1688F0BF
:102B20009F5798F0B92F9927B751B0F0E1F0660F91
:102B3000771F881F991F1AF0BA95C9F714C0B130D2
:102B400091F00E946716B1E008950C946716672F04
:102B5000782F8827B85F39F0B93FCCF38695779501
:102B60006795B395D9F73EF49095809570956195EA
:102B70007F4F8F4F9F4F0895E89409C097FB3EF415
:102B800090958095709561957F4F8F4F9F4F9923BA
:102B9000A9F0F92F96E9BB279395F6958795779538
:102BA0006795B795F111F8CFFAF4BB0F11F460FFF8
:102BB0001BC06F5F7F4F8F4F9F4F16C0882311F050
:102BC00096E911C0772321F09EE8872F762F05C064
:102BD000662371F096E8862F70E060E02AF09A95FF
:102BE000660F771F881FDAF7880F9695879597F9F4
:102BF0000895990F0008550FAA0BE0E8FEEF16168E
:102C00001706E807F907C0F012161306E407F507E0
:102C100098F0621B730B840B950B39F40A2661F054
:102C2000232B242B252B21F408950A2609F4A140F7
:102C3000A6958FEF811D811D089597F99F6780E804
:102C400070E060E008959FEF80EC089500240A94FE
:102C50001616170618060906089500240A94121677
:102C60001306140605060895092E0394000C11F4AA
:102C7000882352F0BB0F40F4BF2B11F460FF04C057
:102C80006F5F7F4F8F4F9F4F089557FD9058440FB0
:102C9000551F59F05F3F71F04795880F97FB991FBB
:102CA00061F09F3F79F08795089512161306140678
:102CB000551FF2CF4695F1DF08C016161706180605
:102CC000991FF1CF86957105610508940895E894E0
:102CD000BB2766277727CB0197F908950E948116B5
:102CE0000C9434160E94261638F00E942D1620F0FF
:102CF000952311F00C941D160C94231611240C949A
:102D000068160E94451670F3959FC1F3950F50E029
:102D1000551F629FF001729FBB27F00DB11D639F8D
:102D2000AA27F00DB11DAA1F649F6627B00DA11D33
:102D3000661F829F2227B00DA11D621F739FB00DD9
:102D4000A11D621F839FA00D611D221F749F332749
:102D5000A00D611D231F849F600D211D822F762FE2
:102D60006A2F11249F5750409AF0F1F088234AF0BF
:102D7000EE0FFF1FBB1F661F771F881F915050402B
:102D8000A9F79E3F510580F00C941D160C9468160F
:102D90005F3FE4F3983ED4F3869577956795B795B2
:102DA000F795E7959F5FC1F7FE2B880F911D9695CC
:102DB000879597F90895DB018F939F930E94D01414
:102DC000BF91AF91A29F800D911DA39F900DB29FC7
:102DD000900D11240895991B79E004C0991F96174E
:102DE00008F0961B881F7A95C9F78095089597FB80
:102DF000072E16F4009407D077FD09D00E940B1718
:102E000007FC05D03EF4909581959F4F08957095ED
:102E100061957F4F0895AA1BBB1B51E107C0AA1FF4
:102E2000BB1FA617B70710F0A61BB70B881F991F6B
:102E30005A95A9F780959095BC01CD010895EE0FA4
:102E4000FF1F0590F491E02D099481E090E0F89443
:082E50000C942A17F894FFCF3F
:102E58000108000800020002000100000000000054
:102E6800001E0414025F025E020D0A004C4F41442A
:042E780045520000BF
:00000001FF
